{
  "contractName": "Fundraising",
  "abi": [
    {
      "constant": false,
      "inputs": [],
      "name": "renounceOwnership",
      "outputs": [],
      "payable": false,
      "stateMutability": "nonpayable",
      "type": "function"
    },
    {
      "constant": true,
      "inputs": [],
      "name": "owner",
      "outputs": [
        {
          "name": "",
          "type": "address"
        }
      ],
      "payable": false,
      "stateMutability": "view",
      "type": "function"
    },
    {
      "constant": true,
      "inputs": [],
      "name": "isOwner",
      "outputs": [
        {
          "name": "",
          "type": "bool"
        }
      ],
      "payable": false,
      "stateMutability": "view",
      "type": "function"
    },
    {
      "constant": false,
      "inputs": [
        {
          "name": "newOwner",
          "type": "address"
        }
      ],
      "name": "transferOwnership",
      "outputs": [],
      "payable": false,
      "stateMutability": "nonpayable",
      "type": "function"
    },
    {
      "inputs": [
        {
          "name": "deadline",
          "type": "uint256"
        },
        {
          "name": "minimumGoal",
          "type": "uint256"
        }
      ],
      "payable": false,
      "stateMutability": "nonpayable",
      "type": "constructor"
    },
    {
      "anonymous": false,
      "inputs": [
        {
          "indexed": true,
          "name": "previousOwner",
          "type": "address"
        },
        {
          "indexed": true,
          "name": "newOwner",
          "type": "address"
        }
      ],
      "name": "OwnershipTransferred",
      "type": "event"
    },
    {
      "constant": true,
      "inputs": [
        {
          "name": "_donor",
          "type": "address"
        }
      ],
      "name": "donationsOf",
      "outputs": [
        {
          "name": "",
          "type": "uint256"
        }
      ],
      "payable": false,
      "stateMutability": "view",
      "type": "function"
    },
    {
      "constant": true,
      "inputs": [],
      "name": "accumulatedDonations",
      "outputs": [
        {
          "name": "",
          "type": "uint256"
        }
      ],
      "payable": false,
      "stateMutability": "view",
      "type": "function"
    },
    {
      "constant": false,
      "inputs": [],
      "name": "donate",
      "outputs": [],
      "payable": true,
      "stateMutability": "payable",
      "type": "function"
    },
    {
      "constant": false,
      "inputs": [],
      "name": "retireDonations",
      "outputs": [],
      "payable": false,
      "stateMutability": "nonpayable",
      "type": "function"
    },
    {
      "constant": false,
      "inputs": [],
      "name": "refundDonation",
      "outputs": [],
      "payable": false,
      "stateMutability": "nonpayable",
      "type": "function"
    }
  ],
  "bytecode": "0x608060405234801561001057600080fd5b50604051604080610e7d8339810180604052604081101561003057600080fd5b810190808051906020019092919080519060200190929190505050336000806101000a81548173ffffffffffffffffffffffffffffffffffffffff021916908373ffffffffffffffffffffffffffffffffffffffff1602179055506000809054906101000a900473ffffffffffffffffffffffffffffffffffffffff1673ffffffffffffffffffffffffffffffffffffffff16600073ffffffffffffffffffffffffffffffffffffffff167f8be0079c531659141344cd1fd0a4f28419497f9722a3daafe3b4186f6b6457e060405160405180910390a3814201600181905550806002819055505050610d55806101286000396000f3fe6080604052600436106100865760003560e01c80638da5cb5b116100595780638da5cb5b146101495780638f32d59b146101a057806397f12937146101cf578063ed88c68e146101e6578063f2fde38b146101f057610086565b80633fc306661461008b578063670b0b04146100f057806367b65c8c1461011b578063715018a614610132575b600080fd5b34801561009757600080fd5b506100da600480360360208110156100ae57600080fd5b81019080803573ffffffffffffffffffffffffffffffffffffffff169060200190929190505050610241565b6040518082815260200191505060405180910390f35b3480156100fc57600080fd5b5061010561028a565b6040518082815260200191505060405180910390f35b34801561012757600080fd5b50610130610294565b005b34801561013e57600080fd5b506101476104b5565b005b34801561015557600080fd5b5061015e6105ee565b604051808273ffffffffffffffffffffffffffffffffffffffff1673ffffffffffffffffffffffffffffffffffffffff16815260200191505060405180910390f35b3480156101ac57600080fd5b506101b5610617565b604051808215151515815260200191505060405180910390f35b3480156101db57600080fd5b506101e461066e565b005b6101ee6107c4565b005b3480156101fc57600080fd5b5061023f6004803603602081101561021357600080fd5b81019080803573ffffffffffffffffffffffffffffffffffffffff169060200190929190505050610947565b005b6000600460008373ffffffffffffffffffffffffffffffffffffffff1673ffffffffffffffffffffffffffffffffffffffff168152602001908152602001600020549050919050565b6000600354905090565b60015442116102ee576040517f08c379a0000000000000000000000000000000000000000000000000000000008152600401808060200182810382526032815260200180610c696032913960400191505060405180910390fd5b6002546003541061034a576040517f08c379a0000000000000000000000000000000000000000000000000000000008152600401808060200182810382526055815260200180610cd56055913960600191505060405180910390fd5b6000600460003373ffffffffffffffffffffffffffffffffffffffff1673ffffffffffffffffffffffffffffffffffffffff16815260200190815260200160002054116103e2576040517f08c379a0000000000000000000000000000000000000000000000000000000008152600401808060200182810382526033815260200180610c366033913960400191505060405180910390fd5b60003390508073ffffffffffffffffffffffffffffffffffffffff166108fc600460003373ffffffffffffffffffffffffffffffffffffffff1673ffffffffffffffffffffffffffffffffffffffff168152602001908152602001600020549081150290604051600060405180830381858888f1935050505015801561046c573d6000803e3d6000fd5b506000600460003373ffffffffffffffffffffffffffffffffffffffff1673ffffffffffffffffffffffffffffffffffffffff1681526020019081526020016000208190555050565b6104bd610617565b61052f576040517f08c379a00000000000000000000000000000000000000000000000000000000081526004018080602001828103825260208152602001807f4f776e61626c653a2063616c6c6572206973206e6f7420746865206f776e657281525060200191505060405180910390fd5b600073ffffffffffffffffffffffffffffffffffffffff166000809054906101000a900473ffffffffffffffffffffffffffffffffffffffff1673ffffffffffffffffffffffffffffffffffffffff167f8be0079c531659141344cd1fd0a4f28419497f9722a3daafe3b4186f6b6457e060405160405180910390a360008060006101000a81548173ffffffffffffffffffffffffffffffffffffffff021916908373ffffffffffffffffffffffffffffffffffffffff160217905550565b60008060009054906101000a900473ffffffffffffffffffffffffffffffffffffffff16905090565b60008060009054906101000a900473ffffffffffffffffffffffffffffffffffffffff1673ffffffffffffffffffffffffffffffffffffffff163373ffffffffffffffffffffffffffffffffffffffff1614905090565b610676610617565b6106e8576040517f08c379a00000000000000000000000000000000000000000000000000000000081526004018080602001828103825260208152602001807f4f776e61626c653a2063616c6c6572206973206e6f7420746865206f776e657281525060200191505060405180910390fd5b6001544211610742576040517f08c379a000000000000000000000000000000000000000000000000000000000815260040180806020018281038252603a815260200180610c9b603a913960400191505060405180910390fd5b600254600354101561079f576040517f08c379a0000000000000000000000000000000000000000000000000000000008152600401808060200182810382526055815260200180610be16055913960600191505060405180910390fd5b60006107a96105ee565b90508073ffffffffffffffffffffffffffffffffffffffff16ff5b60015442111561081f576040517f08c379a0000000000000000000000000000000000000000000000000000000008152600401808060200182810382526021815260200180610b9a6021913960400191505060405180910390fd5b60003411610895576040517f08c379a00000000000000000000000000000000000000000000000000000000081526004018080602001828103825260198152602001807f596f757220646f6e6174696f6e2063616e277420626520302e0000000000000081525060200191505060405180910390fd5b6108e734600460003373ffffffffffffffffffffffffffffffffffffffff1673ffffffffffffffffffffffffffffffffffffffff168152602001908152602001600020546109cd90919063ffffffff16565b600460003373ffffffffffffffffffffffffffffffffffffffff1673ffffffffffffffffffffffffffffffffffffffff1681526020019081526020016000208190555061093f346003546109cd90919063ffffffff16565b600381905550565b61094f610617565b6109c1576040517f08c379a00000000000000000000000000000000000000000000000000000000081526004018080602001828103825260208152602001807f4f776e61626c653a2063616c6c6572206973206e6f7420746865206f776e657281525060200191505060405180910390fd5b6109ca81610a55565b50565b600080828401905083811015610a4b576040517f08c379a000000000000000000000000000000000000000000000000000000000815260040180806020018281038252601b8152602001807f536166654d6174683a206164646974696f6e206f766572666c6f77000000000081525060200191505060405180910390fd5b8091505092915050565b600073ffffffffffffffffffffffffffffffffffffffff168173ffffffffffffffffffffffffffffffffffffffff161415610adb576040517f08c379a0000000000000000000000000000000000000000000000000000000008152600401808060200182810382526026815260200180610bbb6026913960400191505060405180910390fd5b8073ffffffffffffffffffffffffffffffffffffffff166000809054906101000a900473ffffffffffffffffffffffffffffffffffffffff1673ffffffffffffffffffffffffffffffffffffffff167f8be0079c531659141344cd1fd0a4f28419497f9722a3daafe3b4186f6b6457e060405160405180910390a3806000806101000a81548173ffffffffffffffffffffffffffffffffffffffff021916908373ffffffffffffffffffffffffffffffffffffffff1602179055505056fe5468652066756e6472616973696e6720706572696f6420697320636c6f7365642e4f776e61626c653a206e6577206f776e657220697320746865207a65726f2061646472657373546f207265746972652074686520646f6e6174696f6e732c2074686520636f6e74726163742073686f756c64206861766520636f6c6c6563746564206174206c6561737420746865206d696e696d756d20676f616c546f20676574206120726566756e642c20796f752073686f756c64206861766520646f6e6174656420736f6d657468696e672e546f20676574206120726566756e64207468652066756e6472616973696e6720706572696f64206d75737420657870697265546f207265746972652074686520646f6e6174696f6e73207468652066756e6472616973696e6720706572696f64206d75737420657870697265546f20676574206120726566756e64206f6620796f757220646f6e6172696f6e2c2074686520636f6e74726163742073686f756c642068617665204e4f5420726561636820746865206d696e696d756d20676f616ca165627a7a72305820f2c2d75b105657c50782d96401a296fe5717c01d5acabc48267fee445fb0d7770029",
  "source": "pragma solidity >=0.4.21 <0.6.0;\n\nimport \"./SafeMath.sol\";\nimport './Ownable.sol';\n\n/// @title Fundraising example contract.\n/// @author Alejandro Narancio\n/// @notice This contract will allow to make a crowd fundraising using ethers, please see the readme for the rules considered in the contract.\ncontract Fundraising is Ownable {\n\n    using SafeMath for uint;\n\n    uint private _deadline;\n\n    uint private _minimumGoal;\n\n    uint private _accumulatedDonations;\n\n    mapping (address => uint) _donations;\n\n    /// @notice Create the contract, initilize the fundraising attributes\n    /// @param deadline number of seconds the fundraising period will be active/open\n    /// @param minimumGoal the minimum amount of wei it must be collected in order to allow the owner to withdraw the funding\n    constructor(uint deadline, uint minimumGoal) public {\n        // we will use now in order to get the block timestamp, but remember that this variable can be manipulated by the miners.\n        // for our educational purpose is fine to use now\n        _deadline = now + deadline;\n        _minimumGoal = minimumGoal;\n    }\n\n    /// @notice Returns the total amount of donations made by a specific address.\n    /// @param _donor The address we want to get the donations.\n    function donationsOf(address _donor) public view returns (uint) {\n        return _donations[_donor];\n    }\n\n    /// @notice Returns the total accumulated donations. \n    function accumulatedDonations() public view returns (uint) {\n        return _accumulatedDonations;\n    }\n\n    /// @notice Receive a donation\n    function donate() public payable {\n        require(now <= _deadline, \"The fundraising period is closed.\");\n        require(msg.value > 0, \"Your donation can't be 0.\");\n        _donations[msg.sender] = _donations[msg.sender].add(msg.value);\n        _accumulatedDonations = _accumulatedDonations.add(msg.value);\n    }\n\n    /// @notice This function will be called by the contract owner when it wants to withdraw the money collected. This only can be called after the fundraising period finished and when the minimum goal has been reached.\n    function retireDonations() public onlyOwner {\n        require(now > _deadline, \"To retire the donations the fundraising period must expire\");\n        require(_accumulatedDonations >= _minimumGoal, \"To retire the donations, the contract should have collected at least the minimum goal\");\n\n        // destruct the contract and send all the balance to the owner\n        address payable _owner = address(uint160(owner()));\n        selfdestruct(_owner);\n    }\n\n    /// @notice This function will be called by the donors of the contract. If the fundraising period ended and the minimum goal is not reached, the donors can get his money back calling this function.\n    function refundDonation() public {\n        require(now > _deadline, \"To get a refund the fundraising period must expire\");\n        require(_accumulatedDonations < _minimumGoal, \"To get a refund of your donarion, the contract should have NOT reach the minimum goal\");\n        require(_donations[msg.sender] > 0, \"To get a refund, you should have donated something.\");\n\n        // create a payable address of the donor\n        address payable donor = address(uint160(msg.sender));\n        donor.transfer(_donations[msg.sender]);\n        _donations[msg.sender] = 0;\n    }\n\n}",
  "sourcePath": "/Users/pixel/Development/projects/blockchain_vault/02_Solidity_Examples/simple_fundraising/contracts/Fundraising.sol",
  "compiler": {
    "name": "solc",
    "version": "0.5.8+commit.23d335f2.Emscripten.clang"
  },
  "schemaVersion": "3.0.11",
  "updatedAt": "2019-07-22T03:26:50.844Z",
  "devdoc": {
    "author": "Alejandro Narancio",
    "methods": {
      "constructor": {
        "params": {
          "deadline": "number of seconds the fundraising period will be active/open",
          "minimumGoal": "the minimum amount of wei it must be collected in order to allow the owner to withdraw the funding"
        }
      },
      "donationsOf(address)": {
        "params": {
          "_donor": "The address we want to get the donations."
        }
      },
      "isOwner()": {
        "details": "Returns true if the caller is the current owner."
      },
      "owner()": {
        "details": "Returns the address of the current owner."
      },
      "renounceOwnership()": {
        "details": "Leaves the contract without owner. It will not be possible to call `onlyOwner` functions anymore. Can only be called by the current owner.     * NOTE: Renouncing ownership will leave the contract without an owner, thereby removing any functionality that is only available to the owner."
      },
      "transferOwnership(address)": {
        "details": "Transfers ownership of the contract to a new account (`newOwner`). Can only be called by the current owner."
      }
    },
    "title": "Fundraising example contract."
  },
  "userdoc": {
    "methods": {
      "accumulatedDonations()": {
        "notice": "Returns the total accumulated donations. "
      },
      "constructor": "Create the contract, initilize the fundraising attributes",
      "donate()": {
        "notice": "Receive a donation"
      },
      "donationsOf(address)": {
        "notice": "Returns the total amount of donations made by a specific address."
      },
      "refundDonation()": {
        "notice": "This function will be called by the donors of the contract. If the fundraising period ended and the minimum goal is not reached, the donors can get his money back calling this function."
      },
      "retireDonations()": {
        "notice": "This function will be called by the contract owner when it wants to withdraw the money collected. This only can be called after the fundraising period finished and when the minimum goal has been reached."
      }
    },
    "notice": "This contract will allow to make a crowd fundraising using ethers, please see the readme for the rules considered in the contract."
  }
}