{
  "contractName": "Fundraising",
  "abi": [
    {
      "inputs": [
        {
          "name": "_deadline",
          "type": "uint256"
        },
        {
          "name": "_minimumGoal",
          "type": "uint256"
        }
      ],
      "payable": false,
      "stateMutability": "nonpayable",
      "type": "constructor"
    },
    {
      "constant": true,
      "inputs": [
        {
          "name": "_donor",
          "type": "address"
        }
      ],
      "name": "donationOf",
      "outputs": [
        {
          "name": "",
          "type": "uint256"
        }
      ],
      "payable": false,
      "stateMutability": "view",
      "type": "function"
    },
    {
      "constant": false,
      "inputs": [],
      "name": "donate",
      "outputs": [],
      "payable": true,
      "stateMutability": "payable",
      "type": "function"
    }
  ],
  "bytecode": "0x608060405234801561001057600080fd5b506040516040806102b28339810180604052604081101561003057600080fd5b810190808051906020019092919080519060200190929190505050336000806101000a81548173ffffffffffffffffffffffffffffffffffffffff021916908373ffffffffffffffffffffffffffffffffffffffff160217905550814201600181905550806002819055505050610206806100ac6000396000f3fe6080604052600436106100295760003560e01c8063d949473f1461002e578063ed88c68e14610093575b600080fd5b34801561003a57600080fd5b5061007d6004803603602081101561005157600080fd5b81019080803573ffffffffffffffffffffffffffffffffffffffff16906020019092919050505061009d565b6040518082815260200191505060405180910390f35b61009b6100e6565b005b6000600360008373ffffffffffffffffffffffffffffffffffffffff1673ffffffffffffffffffffffffffffffffffffffff168152602001908152602001600020549050919050565b600154421115610141576040517f08c379a00000000000000000000000000000000000000000000000000000000081526004018080602001828103825260218152602001806101ba6021913960400191505060405180910390fd5b600034116101b7576040517f08c379a00000000000000000000000000000000000000000000000000000000081526004018080602001828103825260198152602001807f596f757220646f6e6174696f6e2063616e277420626520302e0000000000000081525060200191505060405180910390fd5b56fe5468652066756e6472616973696e6720706572696f6420697320636c6f7365642ea165627a7a72305820d91942fc0cc5feb247e2655fad6b5e0800ecfe7b85781bf251e90cb9c0db5fdd0029",
  "source": "pragma solidity >=0.4.21 <0.6.0;\n\n/// @title Fundraising example contract.\n/// @author Alejandro Narancio\n/// @notice This contract will allow to make a crowd fundraising using ethers, please see the readme for the rules considered in the contract.\ncontract Fundraising {\n\n    address owner;\n\n    uint deadline;\n\n    uint minimumGoal;\n\n    mapping (address => uint) donations;\n\n    /// @notice Create the contract, initilize the fundraising attributes\n    /// @param _deadline number of seconds the fundraising period will be active/open\n    /// @param _minimumGoal the minimum amount of wei it must be collected in order to allow the owner to withdraw the funding\n    constructor(uint _deadline, uint _minimumGoal) public {\n        owner = msg.sender;\n        // we will use now in order to get the block timestamp, but remember that this variable can be manipulated by the miners.\n        // for our educational purpose is fine to use now\n        deadline = now + _deadline;\n        minimumGoal = _minimumGoal;\n    }\n\n    /// @notice Returns the total amount of donations made by a specific address.\n    /// @param _donor The address we want to get the donations.\n    function donationOf(address _donor) public view returns (uint) {\n        return donations[_donor];\n    }\n\n    function donate() public payable {\n        require(now <= deadline, \"The fundraising period is closed.\");\n        require(msg.value > 0, \"Your donation can't be 0.\");\n    }\n\n}",
  "sourcePath": "/Users/pixel/Development/projects/blockchain_vault/02_Solidity_Examples/simple_fundraising/contracts/Fundraising.sol",
  "compiler": {
    "name": "solc",
    "version": "0.5.8+commit.23d335f2.Emscripten.clang"
  },
  "schemaVersion": "3.0.11",
  "updatedAt": "2019-07-20T21:25:54.117Z",
  "devdoc": {
    "author": "Alejandro Narancio",
    "methods": {
      "constructor": {
        "params": {
          "_deadline": "number of seconds the fundraising period will be active/open",
          "_minimumGoal": "the minimum amount of wei it must be collected in order to allow the owner to withdraw the funding"
        }
      },
      "donationOf(address)": {
        "params": {
          "_donor": "The address we want to get the donations."
        }
      }
    },
    "title": "Fundraising example contract."
  },
  "userdoc": {
    "methods": {
      "constructor": "Create the contract, initilize the fundraising attributes",
      "donationOf(address)": {
        "notice": "Returns the total amount of donations made by a specific address."
      }
    },
    "notice": "This contract will allow to make a crowd fundraising using ethers, please see the readme for the rules considered in the contract."
  }
}