{
  "contractName": "Fundraising",
  "abi": [
    {
      "constant": false,
      "inputs": [],
      "name": "renounceOwnership",
      "outputs": [],
      "payable": false,
      "stateMutability": "nonpayable",
      "type": "function"
    },
    {
      "constant": true,
      "inputs": [],
      "name": "owner",
      "outputs": [
        {
          "name": "",
          "type": "address"
        }
      ],
      "payable": false,
      "stateMutability": "view",
      "type": "function"
    },
    {
      "constant": true,
      "inputs": [],
      "name": "isOwner",
      "outputs": [
        {
          "name": "",
          "type": "bool"
        }
      ],
      "payable": false,
      "stateMutability": "view",
      "type": "function"
    },
    {
      "constant": false,
      "inputs": [
        {
          "name": "newOwner",
          "type": "address"
        }
      ],
      "name": "transferOwnership",
      "outputs": [],
      "payable": false,
      "stateMutability": "nonpayable",
      "type": "function"
    },
    {
      "inputs": [
        {
          "name": "deadline",
          "type": "uint256"
        },
        {
          "name": "minimumGoal",
          "type": "uint256"
        }
      ],
      "payable": false,
      "stateMutability": "nonpayable",
      "type": "constructor"
    },
    {
      "anonymous": false,
      "inputs": [
        {
          "indexed": true,
          "name": "previousOwner",
          "type": "address"
        },
        {
          "indexed": true,
          "name": "newOwner",
          "type": "address"
        }
      ],
      "name": "OwnershipTransferred",
      "type": "event"
    },
    {
      "constant": true,
      "inputs": [
        {
          "name": "_donor",
          "type": "address"
        }
      ],
      "name": "donationsOf",
      "outputs": [
        {
          "name": "",
          "type": "uint256"
        }
      ],
      "payable": false,
      "stateMutability": "view",
      "type": "function"
    },
    {
      "constant": true,
      "inputs": [],
      "name": "accumulatedDonations",
      "outputs": [
        {
          "name": "",
          "type": "uint256"
        }
      ],
      "payable": false,
      "stateMutability": "view",
      "type": "function"
    },
    {
      "constant": false,
      "inputs": [],
      "name": "donate",
      "outputs": [],
      "payable": true,
      "stateMutability": "payable",
      "type": "function"
    },
    {
      "constant": false,
      "inputs": [],
      "name": "retireDonations",
      "outputs": [],
      "payable": false,
      "stateMutability": "nonpayable",
      "type": "function"
    }
  ],
  "bytecode": "0x608060405234801561001057600080fd5b50604051604080610b808339810180604052604081101561003057600080fd5b810190808051906020019092919080519060200190929190505050336000806101000a81548173ffffffffffffffffffffffffffffffffffffffff021916908373ffffffffffffffffffffffffffffffffffffffff1602179055506000809054906101000a900473ffffffffffffffffffffffffffffffffffffffff1673ffffffffffffffffffffffffffffffffffffffff16600073ffffffffffffffffffffffffffffffffffffffff167f8be0079c531659141344cd1fd0a4f28419497f9722a3daafe3b4186f6b6457e060405160405180910390a3814201600181905550806002819055505050610a58806101286000396000f3fe60806040526004361061007b5760003560e01c80638f32d59b1161004e5780638f32d59b1461017e57806397f12937146101ad578063ed88c68e146101c4578063f2fde38b146101ce5761007b565b80633fc3066614610080578063670b0b04146100e5578063715018a6146101105780638da5cb5b14610127575b600080fd5b34801561008c57600080fd5b506100cf600480360360208110156100a357600080fd5b81019080803573ffffffffffffffffffffffffffffffffffffffff16906020019092919050505061021f565b6040518082815260200191505060405180910390f35b3480156100f157600080fd5b506100fa610268565b6040518082815260200191505060405180910390f35b34801561011c57600080fd5b50610125610272565b005b34801561013357600080fd5b5061013c6103ab565b604051808273ffffffffffffffffffffffffffffffffffffffff1673ffffffffffffffffffffffffffffffffffffffff16815260200191505060405180910390f35b34801561018a57600080fd5b506101936103d4565b604051808215151515815260200191505060405180910390f35b3480156101b957600080fd5b506101c261042b565b005b6101cc610581565b005b3480156101da57600080fd5b5061021d600480360360208110156101f157600080fd5b81019080803573ffffffffffffffffffffffffffffffffffffffff169060200190929190505050610704565b005b6000600460008373ffffffffffffffffffffffffffffffffffffffff1673ffffffffffffffffffffffffffffffffffffffff168152602001908152602001600020549050919050565b6000600354905090565b61027a6103d4565b6102ec576040517f08c379a00000000000000000000000000000000000000000000000000000000081526004018080602001828103825260208152602001807f4f776e61626c653a2063616c6c6572206973206e6f7420746865206f776e657281525060200191505060405180910390fd5b600073ffffffffffffffffffffffffffffffffffffffff166000809054906101000a900473ffffffffffffffffffffffffffffffffffffffff1673ffffffffffffffffffffffffffffffffffffffff167f8be0079c531659141344cd1fd0a4f28419497f9722a3daafe3b4186f6b6457e060405160405180910390a360008060006101000a81548173ffffffffffffffffffffffffffffffffffffffff021916908373ffffffffffffffffffffffffffffffffffffffff160217905550565b60008060009054906101000a900473ffffffffffffffffffffffffffffffffffffffff16905090565b60008060009054906101000a900473ffffffffffffffffffffffffffffffffffffffff1673ffffffffffffffffffffffffffffffffffffffff163373ffffffffffffffffffffffffffffffffffffffff1614905090565b6104336103d4565b6104a5576040517f08c379a00000000000000000000000000000000000000000000000000000000081526004018080602001828103825260208152602001807f4f776e61626c653a2063616c6c6572206973206e6f7420746865206f776e657281525060200191505060405180910390fd5b60015442116104ff576040517f08c379a000000000000000000000000000000000000000000000000000000000815260040180806020018281038252603a8152602001806109f3603a913960400191505060405180910390fd5b600254600354101561055c576040517f08c379a000000000000000000000000000000000000000000000000000000000815260040180806020018281038252605581526020018061099e6055913960600191505060405180910390fd5b60006105666103ab565b90508073ffffffffffffffffffffffffffffffffffffffff16ff5b6001544211156105dc576040517f08c379a00000000000000000000000000000000000000000000000000000000081526004018080602001828103825260218152602001806109576021913960400191505060405180910390fd5b60003411610652576040517f08c379a00000000000000000000000000000000000000000000000000000000081526004018080602001828103825260198152602001807f596f757220646f6e6174696f6e2063616e277420626520302e0000000000000081525060200191505060405180910390fd5b6106a434600460003373ffffffffffffffffffffffffffffffffffffffff1673ffffffffffffffffffffffffffffffffffffffff1681526020019081526020016000205461078a90919063ffffffff16565b600460003373ffffffffffffffffffffffffffffffffffffffff1673ffffffffffffffffffffffffffffffffffffffff168152602001908152602001600020819055506106fc3460035461078a90919063ffffffff16565b600381905550565b61070c6103d4565b61077e576040517f08c379a00000000000000000000000000000000000000000000000000000000081526004018080602001828103825260208152602001807f4f776e61626c653a2063616c6c6572206973206e6f7420746865206f776e657281525060200191505060405180910390fd5b61078781610812565b50565b600080828401905083811015610808576040517f08c379a000000000000000000000000000000000000000000000000000000000815260040180806020018281038252601b8152602001807f536166654d6174683a206164646974696f6e206f766572666c6f77000000000081525060200191505060405180910390fd5b8091505092915050565b600073ffffffffffffffffffffffffffffffffffffffff168173ffffffffffffffffffffffffffffffffffffffff161415610898576040517f08c379a00000000000000000000000000000000000000000000000000000000081526004018080602001828103825260268152602001806109786026913960400191505060405180910390fd5b8073ffffffffffffffffffffffffffffffffffffffff166000809054906101000a900473ffffffffffffffffffffffffffffffffffffffff1673ffffffffffffffffffffffffffffffffffffffff167f8be0079c531659141344cd1fd0a4f28419497f9722a3daafe3b4186f6b6457e060405160405180910390a3806000806101000a81548173ffffffffffffffffffffffffffffffffffffffff021916908373ffffffffffffffffffffffffffffffffffffffff1602179055505056fe5468652066756e6472616973696e6720706572696f6420697320636c6f7365642e4f776e61626c653a206e6577206f776e657220697320746865207a65726f2061646472657373546f207265746972652074686520646f6e6174696f6e732c2074686520636f6e74726163742073686f756c64206861766520636f6c6c6563746564206174206c6561737420746865206d696e696d756d20676f616c546f207265746972652074686520646f6e6174696f6e73207468652066756e6472616973696e6720706572696f64206d75737420657870697265a165627a7a72305820282a4f6e243c906176c38e2b07b88bbb42b61dbcbbc5d56783fe849f82f49eba0029",
  "source": "pragma solidity >=0.4.21 <0.6.0;\n\nimport \"./SafeMath.sol\";\nimport './Ownable.sol';\n\n/// @title Fundraising example contract.\n/// @author Alejandro Narancio\n/// @notice This contract will allow to make a crowd fundraising using ethers, please see the readme for the rules considered in the contract.\ncontract Fundraising is Ownable {\n\n    using SafeMath for uint;\n\n    uint private _deadline;\n\n    uint private _minimumGoal;\n\n    uint private _accumulatedDonations;\n\n    mapping (address => uint) _donations;\n\n    /// @notice Create the contract, initilize the fundraising attributes\n    /// @param deadline number of seconds the fundraising period will be active/open\n    /// @param minimumGoal the minimum amount of wei it must be collected in order to allow the owner to withdraw the funding\n    constructor(uint deadline, uint minimumGoal) public {\n        // we will use now in order to get the block timestamp, but remember that this variable can be manipulated by the miners.\n        // for our educational purpose is fine to use now\n        _deadline = now + deadline;\n        _minimumGoal = minimumGoal;\n    }\n\n    /// @notice Returns the total amount of donations made by a specific address.\n    /// @param _donor The address we want to get the donations.\n    function donationsOf(address _donor) public view returns (uint) {\n        return _donations[_donor];\n    }\n\n    /// @notice Returns the total accumulated donations. \n    function accumulatedDonations() public view returns (uint) {\n        return _accumulatedDonations;\n    }\n\n    /// @notice Receive a donation\n    function donate() public payable {\n        require(now <= _deadline, \"The fundraising period is closed.\");\n        require(msg.value > 0, \"Your donation can't be 0.\");\n        _donations[msg.sender] = _donations[msg.sender].add(msg.value);\n        _accumulatedDonations = _accumulatedDonations.add(msg.value);\n    }\n\n    function retireDonations() public onlyOwner {\n        require(now > _deadline, \"To retire the donations the fundraising period must expire\");\n        require(_accumulatedDonations >= _minimumGoal, \"To retire the donations, the contract should have collected at least the minimum goal\");\n\n        // destruct the contract and send all the balance to the owner\n        address payable _owner = address(uint160(owner()));\n        selfdestruct(_owner);\n    }\n\n}",
  "sourcePath": "/Users/pixel/Development/projects/blockchain_vault/02_Solidity_Examples/simple_fundraising/contracts/Fundraising.sol",
  "compiler": {
    "name": "solc",
    "version": "0.5.8+commit.23d335f2.Emscripten.clang"
  },
  "schemaVersion": "3.0.11",
  "updatedAt": "2019-07-21T22:43:43.104Z",
  "devdoc": {
    "author": "Alejandro Narancio",
    "methods": {
      "constructor": {
        "params": {
          "deadline": "number of seconds the fundraising period will be active/open",
          "minimumGoal": "the minimum amount of wei it must be collected in order to allow the owner to withdraw the funding"
        }
      },
      "donationsOf(address)": {
        "params": {
          "_donor": "The address we want to get the donations."
        }
      },
      "isOwner()": {
        "details": "Returns true if the caller is the current owner."
      },
      "owner()": {
        "details": "Returns the address of the current owner."
      },
      "renounceOwnership()": {
        "details": "Leaves the contract without owner. It will not be possible to call `onlyOwner` functions anymore. Can only be called by the current owner.     * NOTE: Renouncing ownership will leave the contract without an owner, thereby removing any functionality that is only available to the owner."
      },
      "transferOwnership(address)": {
        "details": "Transfers ownership of the contract to a new account (`newOwner`). Can only be called by the current owner."
      }
    },
    "title": "Fundraising example contract."
  },
  "userdoc": {
    "methods": {
      "accumulatedDonations()": {
        "notice": "Returns the total accumulated donations. "
      },
      "constructor": "Create the contract, initilize the fundraising attributes",
      "donate()": {
        "notice": "Receive a donation"
      },
      "donationsOf(address)": {
        "notice": "Returns the total amount of donations made by a specific address."
      }
    },
    "notice": "This contract will allow to make a crowd fundraising using ethers, please see the readme for the rules considered in the contract."
  }
}